:100000000EC01EC01DC01CC01BC01AC019C018C025
:1000100017C016C03F065B4F666D7D077F6F1124CA
:100020001FBECFE9CDBF10E0A0E6B0E0EEE9F3E0FF
:1000300002C005900D92A236B107D9F734D1ADC1F7
:10004000DFCF20E031E0482F50E096B392959F70CB
:100050009327692F617070E06417750729F42F5F8B
:100060002A3011F00000F1CF822F0895C09AC19A72
:10007000C89500C0C0980895C198C89500C0C098A0
:10008000C89500C0C19AC89500C0C09A089598E06C
:10009000C198C89500C080FF02C0C09A01C0C09836
:1000A000C19AC89500C08695915091F7C198B898AB
:1000B000C09AC89500C081E0B09902C080E002C03B
:1000C000B89AC098C89500C0C19AC89500C0C19898
:1000D000C89500C0B89A0895CF93811102C0C0E0BE
:1000E00001C0C8E0683008F067E0C62BC09361002B
:1000F000BDDF8C2F8068CBDFCF91BECF26E033E110
:100100004EEA4A95F1F73A95E1F72A95D1F700C002
:100110000895BC98C49A08955F926F927F928F92CF
:100120009F92AF92BF92CF92DF92EF92FF920F9386
:100130001F93CF93DF93CDB7DD27C550CDBF4C01C3
:100140005B016A0179018E010F5F1F4F85E0F801A5
:1001500011928A95E9F7BC9AC4982AE139EF3A9549
:10016000F1F72A95E1F7BC98C49A80E06ADF87FF2F
:1001700002C08FEF33C081E064DF87FDFACF80E0FB
:1001800060DF87FDF6CF95E0692E600E88E0582E7F
:10019000F8019081792E770C708281E052DF181679
:1001A0002CF480E04EDF91E082300CF490E097294F
:1001B000F80190835A945110EBCF0F5F1F4F6012DC
:1001C000E5CF8B81F40180838C81F5018083898167
:1001D000F60180838A81F701808380E0CB5FCDBF09
:1001E000DF91CF911F910F91FF90EF90DF90CF9013
:1001F000BF90AF909F908F907F906F905F90089589
:1002000097B3936097BB98B39C7F98BB65CF609181
:100210006100677061CF682F67708091610088709E
:100220005BCF1F93CF93DF931F92CDB7DD27182F9E
:1002300069831CDF84E42BDF1FDF18DF812F8370CD
:10024000806C25DF6981862F22DF0F90DF91CF91AF
:100250001F9112CF6A3030F4E62FF0E0EC5EFF4FD2
:10026000649101C060E0813031F490916000907839
:10027000692B60936000D5CF90916000882311F0C6
:10028000906801C09F77909360006091600081E06A
:10029000C8CFCF93C0E060E08C2FC3DFCF5FC43006
:1002A000D1F7CF910895CF93DF93CDB7DD27C45019
:1002B000CDBF24DF65E081E0A3DF60E080E0CADF3E
:1002C00060E081E0C7DF60E082E0C4DF60E083E0FF
:1002D000C1DF14DF13DF1DDF44E6E42EF12C0AE05A
:1002E00010E09E012F5F3F4FAE014E5F5F4FBE019A
:1002F0006D5F7F4FCE0104960FDF8C8187FF04C0B6
:1003000080588C8360E401C063E683E08ADF8C81DF
:1003100090E0982F88272B81820F911DB70129D05B
:100320006C0180E097DFC601B80123D0D82E81E0B0
:1003300091DF6D2D82E08EDFE1DEE0DE8A8190E0EC
:10034000982F88272981820F911DB70112D06C0147
:1003500080E080DFC601B8010CD0D82E81E07ADFC2
:100360006D2D82E077DF66E783E05BDFC7DEC6DE08
:10037000B8CFAA1BBB1B51E107C0AA1FBB1FA61702
:10038000B70710F0A61BB70B881F991F5A95A9F73E
:0E03900080959095BC01CD010895F894FFCFA3
:02039E00FF0F4F
:00000001FF
